:02000000ff00ff
:080002004c6174746963650030
:17000a00694345637562653220323032302e31322e32373934330071
:14002100506172743a20694345354c50314b2d534734380069
:1b003500446174653a204a616e20313120323032352031343a31363a3035008f
:0200500000ffaf
:040052007eaa997e6b
:02005600510057
:020058000105a0
:03005a00920020f1
:03005d006202b389
:030060007200b07b
:0300630082000018
:02006600110087
:02006800010194
:20006a00000000000000000000000010000000000000400000000000010000000000000421
:20008a000000000000001000000000000040000000001000000000000040000000000001b5
:1600aa0000000000000004000000000000100000000000004000ec
:2000c0000000000000000000000000020000000000000800000000000020000000000000f6
:2000e00080000000000002000000000000080000000002000000000000080000000000006c
:1701000020000000000000800000000000020000000000000800003e
:200117000000000000000000000000000000000000000000000000000000000000000000c8
:20013700000000000000000000400000000010000000000000000000000000010000000057
:160157000000000000000000000000000000000000000000000092
:20016d00000000000000000000000000000000000000000000000000000000000000000072
:20018d00000000000000000000000000000000000000000000000000000000000000000052
:1701ad0000000000000000000000000000000000000000000000003b
:2001c40000000000000000000000000000000000000000000000000000000000000000001b
:2001e4000000000000000000000000000000000000000000000000000000000000000000fb
:1602040000000000000000000000000000000000000000000000e4
:20021a000000000000000000000000000000000000000000000000000000000000000000c4
:20023a00000000000000000000000000000000000040000000000000000000000000040060
:17025a0000000000000000000000000000000000000000000000008d
:2002710000000000000000000000000000000000000000000000000000000000000000006d
:200291000000000000000000004000010000000000400000000000000000000000001400b8
:1602b1000000000000000000000000000000000000000000000037
:2002c700000000000000000000000000000000000000000000000000000000000000000017
:2002e7000000000000000000000000000000020000000000000000000000000020000100d4
:170307000000000000000000000000000000000000000000000000df
:20031e000000000000000000000000000000000000000000000000000000000000000000bf
:20033e000000000000400000000000030000000000c00000000000010000000000000c008f
:16035e000000000000000000000000000000000000000000000089
:20037400000000000000000000000000000000000000000000000000000000000000000069
:20039400000000000000000000000000000000000000000000000000000000000000000049
:1703b400000000000000000000000000000000000000000000000032
:2003cb00000000000000000000000000000000000000000000000000000000000000000012
:2003eb000000100000000000000000000000100000000000000000000000000100000000d1
:16040b0000000000000000000000000000000000000000000000db
:200421000000000000000000000000000000000000000000000000000000000000000000bb
:2004410000000000000000000000000000000000000000000000000000000000000000009b
:17046100000000000000000000000000000000000000000000000084
:20047800000000000000000000000000000000000000000000000000000000000000000064
:20049800000000000000000000000000000000000000000000000000000000010000000043
:1604b800000000000000000000000000000000000000000000002e
:2004ce0000000000000000000000000000000000000000000000000000000000000000000e
:2004ee00000001000000000000040000000001000040000000040001000000001000000093
:17050e000000000000000000000000000000000000000000000000d6
:200525000000000000000000000000000000000000000000000000000000000000000000b6
:2005450000000000004000000000000500000000004000000000000100000000000004000c
:160565000000000000000000000000000000000000000000000080
:20057b00000000000000000000000000000000000000000000000000000000000000000060
:20059b000000000000000000000000000000000000400000000000010000000000000500fa
:1705bb00000000000000000000000000000000000000000000000029
:2005d200000000000c302000000000000000000000000000000000000000000000000000ad
:2005f200000000000000000000008000000000000000000000000000000000000000000069
:1606120000000000000000000000000000000000000000000000d2
:200628000000000000c30000000000000000000000000000000000000000000000000000ef
:2006480000000000000000000000140000000000000000000000000000000000000000007e
:1706680000000000000000000000000000000000000000000000007b
:20067f00000000000c302000000000000000000000000000000000000000000000000000ff
:20069f0000000000000000000000000000000000000000000000000000000000000000003b
:1606bf000000000000000000000000000000000000000000000025
:2006d5000000000000c3000000000000000000000000000000000000000000000000000042
:2006f5000000000000000000000000000000000000000000000000000000000000000000e5
:170715000000000000000000000000000000000000000000000000cd
:20072c00000000000c30200000000000000000000000000000000000000000000000000051
:20074c0000000000000000000000000000000000000000000000000000000000000000008d
:16076c000000000000000000000000000000000000000000000077
:200782000000000000c3000000000000000000000000000000000000000000000000000094
:2007a200000000000000000000000000000000000000000000000000000000000000000037
:1707c200000000000000000000000000000000000000000000000020
:2007d900000000000c302000000000000000000000000000000000000000000000000000a4
:2007f9000000000000000000000000000000000000000000000000000000000000000000e0
:1608190000000000000000000000000000000000000000000000c9
:20082f000000000000c30000000000000000000000000000000000000000000000000000e6
:20084f00000000000000000000000000000000000000000000000000000000000000000089
:17086f00000000000000000000000000000000000000000000000072
:20088600000000000c302000000000000000000000000000000000000000000000000000f6
:2008a600000000000000000000000000000000000000000000000000000000000000000032
:1608c600000000000000000000000000000000000000000000001c
:2008dc000000000000c3000000000000000000000000000000000000000000000000000039
:2008fc000000000000000000000000000000000000000000000000000000000000000000dc
:17091c000000000000000000000000000000000000000000000000c4
:20093300000000000c30200000000000000000000000000000000000000000000000000048
:20095300000000000000000000000000000000000000000000000000000000000000000084
:16097300000000000000000000000000000000000000000000006e
:200989000000000000c300000000000000000000000000000000000000000000000000008b
:2009a90000000000000000000000000000000000000000000000000000000000000000002e
:1709c900000000020000000000000000000000000000000000000015
:2009e000000000000c3020000000000000000000000000000000000000000000000000009b
:200a00000000000000000000000000000000000000000000000000000000000000000000d6
:160a2000000000a000000000000000000000000000000000000020
:200a36000000000000c30000000000000000000000000000000000000000000000000000dd
:200a5600000000000000000000000000000000000000000000000000000000000000000080
:170a7600000000000000000000000000000000000000000000000069
:200a8d00000000000c302000000000000000000000000000000000000000000000000000ed
:200aad00000000000000000000000000000000000000000000000000000000000000000029
:160acd000000000000000000000010000000000000000000000003
:200ae3000000000000c3000000000000000000000000000000000000000000000000000030
:200b03000000000000000000000000000000000000000000000000000000000000000000d2
:170b23000000000000000000000002000000000000000000000000b9
:200b3a00000000000c3020000000000000000000000000000000000000000000000000003f
:200b5a0000000000000000000000000000000000000000000000000000000000000000007b
:160b7a000000000000000000000000000000000000000000000065
:200b90000000000000c3000000000000000000000000000000000000000000000000000082
:200bb000000000000000000000000000000000000000000000000000000000000000000025
:170bd00000000000000000000000000000000000000000000000000e
:200be700000000000c30200000000000000000000000000000000000000000000000000092
:200c07000000000000000000000000000000000000000000000000000000000000000000cd
:160c270000000000000000000000000000000000000000000000b7
:200c3d000000000000c30000000000000000000000000000000000000000000000000000d4
:200c5d00000000000000000000000000000000000000000000000000000000000100000076
:170c7d00000000000000000000000000000000000000000000000060
:200c9400000000000c302000000000000000000000000000000000000000000000000000e4
:200cb400000000000000000000000000000000000000000000000000000000000000000020
:160cd400000000000000000000000000000000000000000000000a
:200cea000000000000c3000000000000000000000000000000000000000000000000000027
:200d0a000000000000000000000000000000000000000000000000000000000000000000c9
:170d2a000000000000000000000000000000000000000000000000b2
:200d4100000000000c30200000000000000000000000000000000000000000000000000036
:200d6100000000000000000000000000000000100000000000000000000000000100000061
:160d8100000000000000000000000000000000000000000000005c
:200d97000000000000c3000000000000000000000000000000000000000000000000000079
:200db70000000000000000000000000000000000000000000000000000000000000000001c
:170dd700000000000000000000000000000000000000000000000005
:200dee00000000000c30200000000000000000000000000000000000000000000000000089
:200e0e000000000000000000000000000000000000000000000000000000000000000000c4
:160e2e0000000000000000000000000000000000000000000000ae
:200e44000000000000c30000000000000000000000000000000000000000000000000000cb
:200e640000000000000000000000000000000000000000000000000000000000000000006e
:170e8400000000000000000000000000000000000000000000000057
:200e9b00000000000c302000000000000000000000000000000000000000000000000000db
:200ebb00000000000000000000000000000000000000000000010000000000000000000016
:160edb000000000000000000000000000000000000000000000001
:200ef1000000000000c300000000000000000000000000000000000000000000000000001e
:200f11000000000000000000000000000000000000000000000008000000000000000000b8
:170f31000000000000000000000000000000000000000000000000a9
:200f4800000000000c3020000000000000000000000000000000000000000000000000002d
:200f6800000000000000000000000000000000000000000000000000000000000000000069
:160f88000000000000000000000000000000000000000000000053
:200f9e000000000000c3000000000000000000000000000000000000000000000000000070
:200fbe00000000000000000000000000000000000000000000000000000000000000000013
:170fde000000000000000000000000000000000000000000000000fc
:200ff500000000000c30200000000000000000000000000000000000000000000000000080
:201015000000000000000000000000000000000000000000000000000000000000000000bb
:1610350000000000000000000000000000000000000000000000a5
:20104b000000000000c30000000000000000000000000000000000000000000000000000c2
:20106b00000000000000000000000000000000000000000000000000000000000000000065
:17108b0000000000000000000000000000000000000000000000004e
:2010a200000000000c302000000000000000000000000000000000000000000000000000d2
:2010c20000000000000000000000000000000000000000000000000000000001000000000d
:1610e20000000001e025aaf0000000000000000000000000000058
:2010f8000000000000c3000000000000000000000000000000000000000000000000000015
:201118000000000000000000000000000000000000000000000000000000000008000000af
:1711380000000000020140ff0000000000000000000000000000005e
:20114f00000000000c30200000000000000000000000000000000000000000000000000024
:20116f00000000000000000000000000000000000000000000000000000000000000000060
:16118f00000000000000000000000000000000000000000000004a
:2011a5000000000000c3000000000000000000000000000000000000000000000000000067
:2011c50000000000000000000000000000000000000000000000000000000000000000000a
:1711e5000000000000000000000000000000000000e0000000000013
:2011fc00000000000c30200000000000000000000000000000000000000000000000000077
:20121c00000000000000000000000000000000000000000000000000000000003000000082
:16123c00000000000000000000000000000000000000000000009c
:201252000000000000c30000000000000000000000000000000000000000000000000000b9
:2012720000000000000000000000000000000000000000000000000000000000000000005c
:17129200000000000000000000000000000000000000000000000045
:2012a900000000000c302000000000000000000000000000000000000000000000000000c9
:2012c900000000000000000000000000000000000000000000000000000000000000000005
:1612e90000000003e00000000000000000000000004000000000cc
:2012ff000000000000c300000000000000000000000000000000000000000000000000000c
:20131f000000000000000000000000000000000000000000000000000000000000000000ae
:17133f00000000003c00000000000000000000000008000000000053
:20135600000000000c3020000000000000000000000000000000000000000000000000001b
:20137600000000000000000000000000000000000000000000000000000000000000000057
:161396000000000000000000000000000000000000000000000041
:2013ac000000000000c300000000000000000000000000000000000000000000000000005e
:2013cc00000000000000000000000000000000000000000000000000000000000000000001
:1713ec000000000000000000000001000000000000000000000000e9
:20140300000000000c3020000000000000000000000000000000000000000000000000006d
:201423000000000000000000000000000000000000000000000000000000000000000000a9
:161443000000000000000000000000000000000000000000000093
:201459000000000000c30000000000000000000000000000000000000000000000000000b0
:20147900000000000000000000000000000000000000000000000000000000000000000053
:171499000000000000000000000000000000000000c000000000007c
:2014b000000000000c302000000000000000000000000000000000000000000000000000c0
:2014d0000000000000000000000000000000000000000000000000000000000000000000fc
:1614f00000000000000000000000000000000000000000000000e6
:201506000000000000c3000000000000000000000000000000000000000000000000000002
:201526000000000000000000000000000000000000000000000000000000000000000000a5
:1715460000000000000000000000000000000000000000000000008e
:20155d00000000000c30200000000000000000000000000000000000000000000000000012
:20157d0000000000000000000000000000000000000000000000000000000000000000004e
:16159d0000000a0000000000002800000000000000000000000006
:2015b3000000000000c3000000000000000000000000000000000000000000000000000055
:2015d3000000000000000000000000000000000000000000000000000000000000000000f8
:1715f30000000040000000000001000400000000000000000000009c
:20160a00000000000c30200000000000000000000000000000000000000000000000000064
:20162a000000000000000000000000000000000000000000000000000000000000000000a0
:16164a0000000000c00000000000080033fbc000000000000000d4
:201660000000000000c30000000000000000000000000000000000000000000000000000a7
:2016800000000000000000000000000000000000000000000000000000000000000000004a
:1716a0000000000014380000000000f001e7fc04000000000000000f
:2016b700000000000c302000000000000000000000000000000000000000000000000000b7
:2016d7000000000000000000000001000000000000000000000000000000000000000000f2
:1616f700000000000005cf500000000000000000000000000000b9
:20170d000000000000c30000000000000000000000000000000000000000000000000000f9
:20172d0000000000000000000000000000000000000000000000000000000000000000009c
:17174d0000000000000030f500003000e00000000000000000000050
:20176400000000000c30200000000000000000000000000000000000000000000000000009
:201784000000000000000000000000000000000000000000000080000000000000000000c5
:1617a4000000000000000000000008000000000000000000000027
:2017ba000000000000c300000000000000000000000000000000000000000000000000004c
:2017da000000000000000000000000000000000000000000000010000000000000000000df
:1717fa000000000000000000000000f00000000000100000000000d8
:20181100000000000c3020000000000000000000000000000000000000000000000000005b
:20183100000000000000000000000000000000000000000000000000000000000000000097
:161851000000000207800000000020001f100000000000000000a9
:201867000000000000c300000000000000000000000000000000000000000000000000009e
:20188700000000000000000000000000000000000000000000000000000000000000000041
:1718a7000000000004000000000003000ba800000000000000000070
:2018be00000000000c302000000000000000000000000000000000000000000000000000ae
:2018de000000000000000000000000000000000000000000000000000000000000000000ea
:1618fe00000000006005bd100002801c00000000000003dcf50030
:201914000000000000c30000000000000000000000000000000000000000000000000000f0
:20193400000000000000000000000000000000000000000000000000000000000000000093
:17195400000000000003cbc300000000000000000000003e0ff0109e
:20196b00000000000c30200000000000000000000000000000000000000000000000000000
:20198b0000000000000000000000000000000000000000000000000000000000000000003c
:1619ab00000000000045e4a03000500000000000001c00000000c1
:2019c1000000000000c3000000000000000000000000000000000000000000000000000043
:2019e1000000000000000000000000000000000000000000000000000000000000000000e6
:171a010000000000003cc080000002900000000000002000000000a0
:201a1800000000000c30200000000000000000000000000000000000000000000000000052
:201a380000000000000000000000000000000020000000000000000000000001000000006d
:161a580000000000068000000000000000000000000000000000f2
:201a6e000000000000c3000000000000000000000000000000000000000000000000000095
:201a8e0000000000000000000000000000000005000000000000000000000000080000002b
:171aae0000000000000000000000000090000000000003800000000e
:201ac500000000000c302000000000000000000000000000000000000000000000000000a5
:201ae5000000000000000000000000000000200000000000000000000000000000000000c1
:161b050000000001c0000000000000000000000000007800000091
:201b1b000000000000c30000000000000000000000000000000000000000000000000000e7
:201b3b0000000000000000000000000000000000000000000000000000000000000000008a
:171b5b00000000000200000000000000000000000000000000000071
:201b7200000000000000000000000000000000000000000000000000000000000000000053
:201b9200000000000000000000000000000000000000000000000000000000000000000033
:161bb20000008002020c8a0400000018000000000014014d000085
:201bc8000000000000000000000000000000000000000000000000000000000000000000fd
:201be8000000000000000000000000000000000000000000000000000000000000000000dd
:171c080000000000042410a0400000000000000000002035f0400028
:201c1f000000000000000000000000000000000000000000000000000000000000000000a5
:201c3f00000000000000000000004000000000000000000000000000000000000000000045
:161c5f00000020000014e1f40000001a000000000000000000004c
:201c750000000000000000000000000000000000000000000000000000000000000000004f
:201c950000000000000000000000000000000000000000000000000000000000000000002f
:171cb50000000a000001ef3f41000000b000000000e000000000000e
:201ccc000000000000000000000000000000000000000000000000000000000000000000f8
:201cec000000000000000000000000000000000000000000000000000000000400000000d4
:161d0c0000000000c204ea140000000000000000002038000000a5
:201d22000000000000000000000000000000000000000000000000000000000000000000a1
:201d4200000000000000000000000000000000000000000000000000000000004000000041
:171d6200000000000041f850c00000000000000000034000000000de
:201d790000000000000000000000000000000000000000000000000000000000000000004a
:201d990000000000000000000000000000000000000000000000000000000000000000002a
:161db900000000000000000000000108bea940010004000000005f
:201dcf000000000000000000000000000000000000000000000000000000000000000000f4
:201def000000000000000000000000000000000000000000000000000000000000000000d4
:171e0f000000000000000000000000d90982a8001000200000000080
:201e260000000000000000000000000000000000000000000000000000000000000000009c
:201e460000000000000000000000000000000000000000000000000000000000000000007c
:161e660000000000e000000000000000000000000000380000004e
:201e7c00000000000000000000000000000000000000000000000000000000000000000046
:201e9c000000004000000000000000000000000000000000000000000000000000000000e6
:171ebc000000001002000000000000000000000000000400000000f9
:201ed3000000000000000000000000000000000000000000000000000000000000000000ef
:201ef3000000000000000000000000000000000000000000000000000000000000000000cf
:161f13000000000000000000000000011ea80000000000000000f1
:201f2900000000000000000000000000000000000000000000000000000000000000000098
:201f4900000000000000000000000000000000000000000000000000000000000000000078
:171f6900000000000000000000001800a082800000e00000000000c7
:201f8000000000000000000000000000000000000000000000000000000000000000000041
:201fa000000000000000000000000000000000000000000000000000000000000000000021
:161fc00000000002e040000000000000da39c0800000205fb50161
:201fd6000000000000000000000000000000000000000000000000000000000000000000eb
:201ff6000000000000000000000000000000000000000000000000000000000000000000cb
:172016000000001006200000000040000d4280000000043da5200068
:20202d00000000000000000000000000000000000000000000000000000000000000000093
:20204d00000000000000000000000000000000000000000000000000000000000000000073
:16206d000000c00040008aa40000000000000000000074000000bb
:2020830000000000000000000000000000000000000000000000000000000000000000003d
:2020a30000000000000000000000000000000000000000000000000000000000000000001d
:1720c30000000c0a0200d05540000000000000000000020000000087
:2020da000000000000000000000000000000000000000000000000000000000000000000e6
:2020fa000000000000000000000000000000000000000000000000000000000000000000c6
:16211a00000000000240000002000000d3d14400001c0000000067
:2021300000000000000000000000000000000000000000000000000000000000000000008f
:2021500000000000000000000000000000000000000000000000000000000000000000006f
:1721700000000000007c000000000000f969280000002380000000af
:20218700000000000000000000000000000000000000000000000000000000000000000038
:2021a700000000000000000000000000000000000000000000000000000000000000000018
:1621c70000000001600000000280000000000000a00001e9020093
:2021dd000000000000000000000000000000000000000000000000000000000000000000e2
:2021fd000000000000000000000000000000000000000000000000000000000000000000c2
:17221d000000000c1c00000000280000a000000004000247f000007d
:2022340000000000000000000000000000000000000000000000000000000000000000008a
:2022540000000000000000000000000000000020000000000000000000000000000000004a
:1622740000000000001c9c7000000000000000000000000000002c
:20228a00000000000000000000000000000000000000000000000000000000000000000034
:2022aa00000000000000000000000000000000040000000000000000000000000000000010
:1722ca00000000000000f8c1000100100000000000014000000000f2
:2022e1000000000000000000000000000000000000000000000000000000000000000000dd
:20230100000000000000000000000000000040000000000000000000000000000078000004
:1623210000000000004000000000078000000000000600000000d9
:20233700000000000000000000000000000000000000000000000000000000000000000086
:202357000000000000000000000000000000040000000000000000000000000000008000e2
:1723770000000000003c0000000000700000000000000000000000a3
:20238e0000000000000000000000000000000000000000000000000000000000000000002f
:2023ae00000000000000000000000000000000000000000000008000000000003800000057
:1623ce00000000000007aff1000000007eec4000201c000000006c
:2023e4000000000000000000000000000000000000000000000000000000000000000000d9
:202404000000000000000000000000000000000000000000000010000000000000000000a8
:1724240000000000040250fa0040000009b2c800000000000000008e
:20243b00000000000000000000000000000000000000000000000000000000000000000081
:20245b000000000000000000000000000000000000000000000000000000000000700fe8fa
:16247b00140400000000000000000000000000000000007ab50004
:2024910000000000000000000000000000000000000000000000000000000000000000002b
:2024b100000000000000000000000000000000000000000000000000000000000000803853
:1724d1000008000000000000000000100000000000e0001eaa100024
:2024e8000000000000000000000000000000000000000000000000000000000000000000d4
:20250800000000000000000000000000000000000000000000000000000000000200087633
:162528000004000000400000000003800383d0000000020ce2028e
:20253e0000000000000000000000000000000000000000000000000000000000000000007d
:20255e0000000000000000000000000000000000000000000000000000000000005000f21b
:17257e00900000000020000000000000e0403f00000040240d1000b6
:20259500000000000000000000000000000000000000000000000000000000000000000026
:2025b500000000000000000000000000000000000000000000000000000000000000800086
:1625d5000000000000000000030003810000000000003000000039
:2025eb000000000000000000000000000000000000000000000000000000000000000000d0
:20260b0000000000000000000000000000000000000000000000000000000000000010009f
:17262b00000000000000000000300000a000000000000600000000c2
:20264200000000000000000000000000000000000000000000000000000000000000000078
:20266200000000000000000000000000000000000000000000000000000000000058000000
:1626820000000001c025ad12020003801695540000000000000019
:20269800000000000000000000000000000000000000000000000000000000000000000022
:2026b800000000000000000000000000000000000000000000000000000000000000000002
:1726d80000000000022b49f0000280080001570000000000000000a3
:2026ef000000000000000000000000000000000000000000000000000000000000000000cb
:20270f000000000000000000000000000000000000000000000000020aa0000000000000fe
:16272f0000000000000000000080000000000000001e03f8a0005b
:20274500000000000000000000000000000000000000000000000000000000000000000074
:2027650000000000000000000000000000000000000000000000000015050000000000003a
:17278500000000000000000000280000000000000001c0140f5000e1
:20279c0000000000000000000000000000000000000000000000000000000000000000001d
:2027bc00000000000000000001000000000000000000000000000068000000000000000094
:1627dc0000000000000000000020010000000000000e22f8a102fb
:2027f2000000000000000000000000000000000000000000000000000000000000000000c7
:20281200000000000000000000100000000000000000000000000004000000000000000092
:17283200000000000000000000010008000000000000041605b100b6
:2028490000000000000000000000000000000000000000000000000000000000000000006f
:20286900000000000000000000000000000000000000000000002000000000000151a0003d
:16288900000000020700000000000f0007bc1000005400000000fa
:20289f00000000000000000000000000000000000000000000000000000000000000000019
:2028bf000000000000000000000000000000000000000000000003400000000000201a007c
:1728df00000000001c000000000000d00043c1000000c00000000032
:2028f6000000000000000000000000000000000000000000000000000000000000000000c2
:202916000000000000000000000000000000000000000000000000000000000000000000a1
:16293600000000000000000000000000000000000000200000006b
:20294c0000000000000000000000000000000000000000000000000000000000000000006b
:20296c00000000000000000000000000000000000000000000000000000000000000080043
:17298c00000000000000000000000000000000000000000000000034
:2029a300000000000000000000000000000000000000000000000000000000000000000014
:2029c3000000000000000000000000000000000000000000000000000000000200000000f2
:1629e300000000000000000000000000000000000000700000006e
:2029f9000000000000000000000000000000000000000000000000000000000000000000be
:202a190000000000000000000000000000000000000000000000000000000000100000008d
:172a3900000000000000000000000000000000000000000000000086
:202a5000000000000000000000000000000000000000000000000000000000000000000066
:202a70000000000000000000000000000000000000000000000000000000000000000dba7f
:162a900094800000000000000000000000000000000001cc00004f
:202aa600000000000000000000000000000000000000000000000000000000000000000010
:202ac600000000000000000000000000000000000000000000000000000000000003005895
:172ae6003d400000000000000000000000000000000003b7a1000001
:202afd000000000000000000000000000000000000000000000000000000000000000000b9
:202b1d00000000000000000000000000000000000000000000000000000000000000036a2b
:162b3d0004080000000000000100001c00000000000e000000004b
:202b5300000000000000000000000000000000000000000000000000000000000000000062
:202b7300000000000000000000000000000000000000000000000010000000000000001c16
:172b930010c00000000000000030000000000000000020000000000b
:202baa0000000000000000000000000000000000000000000000000000000000000000000b
:202bca000000000000000000000000000000000040000000000014025e7f008000100172b5
:162bea0014000000000000000000080a5bb800100000000000008c
:202c00000000000000000000000000000000000000000000000000000000000000000000b4
:202c20000000000000000000000000000000000000000000000000c0048ff00000000e97ac
:172c40009000000000000000000000b103a3e00000000000000000b6
:202c570000000000000000000000000000000000000000000000000000000000000000005d
:202c7700000000000000000000000000000000004000000000002000000000000084193808
:162c97000040600003800000018000011a80048000000000000064
:202cad00000000000000000000000000000000000000000000000000000000000000000007
:202ccd000000000000000000000000000000000000000000000003c00000000000010bbc5c
:172ced00280000000440000000000000e380100000000000000000f1
:202d04000000000000000000000000000000000000000000000000000000000000000000af
:202d24000000000000000000000000000000100000000000000000000000000000180073f4
:162d44000008000140000c350000070000000000000020000000c8
:202d5a00000000000000000000000000000000000000000000000000000000000000000059
:202d7a000000000000000000000000000000028000000000000000000000000000000000b7
:172d9a003000000002000ac30100000000000000000004000000001e
:202db100000000000000000000000000000000000000000000000000000000000000000002
:202dd100000000000000000000000000000000000000000000000000000000000000ad63d2
:162df100d400400060000000000000010000000000000000000057
:202e07000000000000000000000000000000000000000000000000000000000000000000ab
:202e2700000000000000000000000000000000000000000000000000000000000000003457
:172e47003c00000000000000000000009000000000000000000000a8
:202e5e00000000000000000000000000000000000000000000000000000000000000000054
:202e7e00000000000000000000000000000000000000000000000000000000000000f070d4
:162e9e00140000016020ca0000000f00023c10000004000000005e
:202eb4000000000000000000000000000000000000000000000000000000000000000000fe
:202ed400000000000000000000000000000000000000000000000000000000000000189432
:172ef4000280000004004050000000180043c0010000000000000095
:202f0b000000000000000000000000000000000000000000000000000000000000000000a6
:202f2b00000000000000000000000000000000000000000000000000000000000059a3602a
:162f4b00080a0000002dad30200020000000000000000000000014
:202f6100000000000000000000000000000000000000000000000000000000000000000050
:202f8100000000000000000000000000000000000000000000000000000000000000101c04
:172fa10000000000000240c300000000000000000000000000000014
:202fb8000000000000000000000000000000000000000000000000000000000000000000f9
:202fd800000000000000000000000000000010000000000000000000000000000099a00090
:162ff8000000000000000000000000000000000000006000000063
:20300e000000000000000000000000000000000000000000000000000000000000000000a2
:20302e0000000000000000000000000000000080000000000000000000000000000790006b
:17304e000000000000000000000000900000000000000400000000d7
:2030650000000000000000000000000000000000000000000000000000000000000000004b
:2030850000000000000000000000000000000000000000000000000000000000000005e343
:1630a500fc0410000000000000000000000000000000014ea00016
:2030bb000000000000000000000000000000000000000000000000000000000000000000f5
:2030db0000000000000000000000000000000000000000000000004000000000000000bbda
:1730fb00bdc001000000000000000000000000000000000f0002002f
:2031120000000000000000000000000000000000000000000000000000000000000000009d
:2031320000000000000000000000000000000020000000000000000000000000000015390f
:163152007c020000000000000000000002bc10000000000000001b
:20316800000000000000000000000000000000000000000000000000000000000000000047
:20318800000000000000000000000000000000040000000000000000000000000000099684
:1731a800efc0000000000000000005000003c0000000000000000099
:2031bf000000000000000000000000000000000000000000000000000000000000000000f0
:2031df000000000000000000000000000000000000000000000000000000000000000000d0
:1631ff00000060000000af04018000000000000000000000000026
:20321500000000000000000000000000000000000000000000000000000000000000000099
:203235000000000010c00000000000000000000000000000000000000000000000000000a9
:1732550000000000040010f00000000000000000000000000000005e
:20326c00000000000000000000000000000000000000000000000000000000000000000042
:20328c000000000000d3c08800000000000000000000000000000000000000040000a00063
:1632ac00000000a00600000000000800000000000000000000005e
:2032c2000000000000000000000000000000000000000000000000000000000000000000ec
:2032e200000000000089a20c00000000000000000000000000000000000000004005000050
:173302000000000000000000000000f00000000000000000000000c4
:20331900000000000000000000000000000000000000000000000000000000000000000094
:20333900000100000000000000000000000000000000000000000000000000000050000023
:163359000000400000018f0400000000033c10000000000000003b
:20336f0000000000000000000000000000000000000000000000000000000000000000003e
:20338f0000000000000000000000000000000000000000000000000000000000000000001e
:1733af0000000000000000f0000000000003c0000000000000000054
:2033c6000000000000000000000000000000000000000000000000000000000000000000e7
:2033e600000000000000000000008000000010000000000000000000000000000200000035
:1634060000000000000000000000080000000000000000000000a8
:20341c00000000000000000000000000000000000000000000000000000000000000000090
:20343c0000000000000000000000140000000280000000000000000000000000005000008a
:17345c00000000000000000000000010000000000000000000000049
:20347300000000000000000000000000000000000000000000000000000000000000000039
:20349300000000000000000000000000000000000000000000000000000000000000100009
:1634b3000000000000000000000000000000000000000000000003
:2034c9000000000000000000000000000000000000000000000000000000000000000000e3
:2034e9000000000000000000000000000000000000000000000000000000000000000c00b7
:173509000000000000000000000000000000000000000000000000ab
:2035200000000000000000000000000000000000000000000000000000000000000000008b
:20354000000000080000000000000000000000000000000000000000000000000000000063
:163560000000000000000000000000000000000000000000000055
:20357600000000000000000000000000000000000000000000000000000000000000000035
:2035960000000000d0000000000000000000000000000000000000000000000000000f0036
:1735b6000000000000000000000000000000000000000000000000fe
:2035cd000000000000000000000000000000000000000000000000000000000800000000d6
:2035ed0000000000000000000000000000000000000000000000000000000000000003e8d3
:16360d001420000000000000000000000000000000000000000073
:20362300000000000000000000000000000000000000000000000000000000004000000047
:2036430000000000000000000000000000000000000000000000000000000000000000f86f
:173663001680000000000000000000000000000000000000000000ba
:20367a00000000000000000000000000000000000000000000000000000000000000000030
:20369a00000000000000000000000000000000000000000000000000000000000000000010
:1636ba0000000000000000000000000000000000000000000000fa
:2036d0000000000000000000000000000000000000000000000000000000000000000000da
:2036f0000000000000000000000000000000000000000000000000000000000000000000ba
:173710000000000000000000000000000000000000000000000000a2
:20372700000000000000000000000000000000000000000000000000000000000000000082
:20374700000000000000000000000000000000000000000000000000000000000000000062
:16376700000000000000000000000000000000000000000000004c
:20377d0000000000000000000000000000000000000000000000000000000000000000002c
:20379d0000000000000000000000000000000000000000000000000000000000000000000c
:1737bd000000000000000000000000000000000000000000000000f5
:2037d4000000000000000000000000000000000000000000000000000000000000000000d5
:2037f4000000000000000000000000000000000000000000000000000000000000000dabfd
:16381400fc020000000000000000000000000000000000000000a0
:20382a0000000000000000000000000000000000000000000000000000000000000000007e
:20384a0000000000000000000000000000000000000000000000000000000000000700381f
:17386a002bc00000000000000000000000000000000000000000005c
:20388100000000000000000000000000000000000000000000000000000000000000000027
:2038a100000000000000000000000000000000000000000000000000000000000000000007
:1638c10000000000000000000000000000000000000000000000f1
:2038d7000000000000000000000000000000000000000000000000000000000000000000d1
:2038f7000000000000000000000000000000000000000000000000000000000000000e00a3
:17391700000000000000000000000000000000000000000000000099
:20392e00000000000000000000000000000000000000000000000000000000000000000079
:20394e00000000000000000000000000000000000000000000000000000000000000000059
:16396e000000000000000000000000000000000000000000000043
:20398400000000000000000000000000000000000000000000000000000000000000000023
:2039a400000000000000000000000000000000000000000000000000000000000000000003
:1739c4000000000000000000000000000000000000000000000000ec
:2039db000000000000000000000000000000000000000000000000000000000000000000cc
:2039fb000000000000000000000000000000000000000000000000000000000000000000ac
:163a1b000000000000000000000000000000000000000000000095
:203a3100000000000000000000000000000000000000000000000000000000000000000075
:203a5100000000000000000000000000000000000000000000000000000000000001000054
:173a710000000000000000000000000000000000000000000000003e
:203a880000000000000000000000000000000000000000000000000000000000000000001e
:203aa8000000000000000000000000000000000000000000000000000000000000000000fe
:163ac80000000000000000000000000000000000000000000000e8
:203ade000000000000000000000000000000000000000000000000000000000000000000c8
:203afe000000000000000000000000000000000000000000000000000000000000000000a8
:173b1e00000000000000000000000000000000000000000000000090
:203b3500000000000000000000000000000000000000000000000000000000000000000070
:203b5500000000000000000000000000000000000000000000000000000000000000000050
:163b7500000000000000000000000000000000000000000000003a
:203b8b002000000000000000000000000000000000000000000000000000000000000000fa
:203bab000000000000000000000000000000000000000000000000000000000000000000fa
:173bcb000000000000000000000000000000000000000000000000e3
:023be2000000e1
:023be4001101cd
:023be6000101db
:203be800000000000000000000000010000000000000400000000000010000000000000468
:203c08000000000000001000000000000040000000001000004000000000000100000000fb
:163c28000000000000000400000000000010000040000000000032
:203c3e0000000000000000000000000200000000000008000000000000200000000000003c
:203c5e00000000000000000000000000000000000000020000000000000000000000000044
:173c7e000000000000000080000000000002000000000000080000a5
:203c950000000000000000000000000000000000000000000000000000000000000000000f
:203cb5000000000000000000000000000000000000000000004000000000000100000000ae
:163cd5000000000000000000000000000000000040000000000099
:203ceb000000000000000000000000000000000000000000000000000000000000000000b9
:203d0b00000000000000000000000038000000000000000000000000000000000000000060
:173d2b00000000000000000000000000000000000000000000000081
:203d4200000000000000000000000000000000000000000000000000000000000000000061
:203d620000000000000000000000080000000000000000000080018005000002000000042d
:163d820000000000000000000000000000000000800000050000a6
:203d980000000000000000000000000000000000000000000000000000000000000000000b
:203db80000000000000000000000001000000000000000000000000800f0000000000003e0
:173dd800c000000000000000000000000000000000000000500000c4
:203def000000000000000000000000000000000000000000000000000000000000100000a4
:203e0f00000000024000000000000000000000000000000000000900000000000000000048
:163e2f0000000000000000000000000000000000000080000000fd
:203e4500000000000000000000000000000000000000000000000000000000000008000055
:203e6500000000002000000000000000000000000000000000000080000000000000c000dd
:173e850000000000000000000000000000000000000018000000000e
:203e9c00000000000000000000000000000000000000000000000000000000000000000006
:203ebc0000000000000000000000000000000000000180000000030200000000000c08004c
:163edc0000000000000000000000000000000000000002000000ce
:203ef2000000000000000000000000000000000000000000000000000000000000000000b0
:203f120000000000000000000000000000000000000000000000000000000000000020006f
:173f3200000000000000000000000000000000000000000000000078
:203f4900000000000000000000000000000000000000000000000000000000000000005008
:203f6900000000000001c000000000000d000000000000000000050005000000000000144c
:163f890000000000000000000000000000000000000080000000a2
:203f9f000000000000000000000000000000000000000000000000000000000040000004be
:203fbf00000001000000100000040000007000000000000000040080005000001000000079
:173fdf008000000000000000000000000000000000007000000000db
:203ff6000000000000000000000000000000000000000000000000000000000000000000ab
:20401600000000020000000000000000000000000000000000000000000000000020000068
:164036000000000000000000000000000000000000000000000074
:20404c00000000000000000000000000000000000000000000000000000000004000000014
:20406c000000010014000000000400000000000000000000000400000000000010004000c7
:17408c0000000000000000000000000000000000000000000000001d
:2040a3000000000000000000000000000000000000000000000000000000000000b010003d
:2040c300000000000040000000000001000000000000000000000001000000000000040097
:1640e30000000000000000000000000000000000000000000000c7
:2040f90000000000000000000000000000000000000000000000000000000000800800001f
:204119000000020000000000000800000000000000000000000800000000000020006001f3
:174139008000000000000000000000000000000000000000000000ef
:20415000000000000c30000000000000000000000000000000000000000000000000000013
:2041700000000000000000000000000000000000000000000000000000000000000000002f
:164190000000000000000000000000000000000000000000000019
:2041a6000000000000c3020000000000000000000000000000000000000000000000000034
:2041c6000000000000000000000000000000000000000000000000000000000000000000d9
:1741e6000000000000000000000000000000000000000000000000c2
:2041fd00000000000c30000000000000000000000000000000000000000000000000000066
:20421d0000000000000000000000000000000000000000000000020000000000000000007f
:16423d000000000000000000000000000000000000020000000069
:204253000000000000c3020000000000000000000000000000000000000000000000000086
:204273000000000000000000000000000000000000000000000001e000000000000000004a
:17429300000000000000000000000000000000000001e00000000033
:2042aa00000000000c300000000000000000000000000000000000000000000000000000b8
:2042ca000000000000000000000000000000000000000000000000000000000000000000d4
:1642ea0000001000000000000000000000000000000000000000ae
:204300000000000000c30200000000000000000000000000000000000000000000000000d8
:2043200000000000000000000000000000000000000000000000000000000000000000007d
:17434000000000000000000000000000000000000000000000000066
:20435700000000000c3000000000000000000000000000000000f00000000000000000001a
:20437700000000000000000000000000000000000000000000000000000000000000000026
:164397000000000000000000000000000000000000000000ff0011
:2043ad000000000000c302000000000000000000000000000000000000000000000000002b
:2043cd000000000000000000000000000000000000000000000000000000000000000000d0
:1743ed0000000000000000000000000000000000000040000ff40076
:20440400000000000c3000000000000000000000000000000000000000000000000000005c
:2044240000000000000000000000000000000000000000000000000000ff00000000000079
:164444000000000000000000000000000000000000000000ff0063
:20445a000000000000c302000000000000000000000000000000000000000000000000007d
:20447a00000000000000000000000000000000000000000000000000000ff40042000000dd
:17449a0000000000000000000000000000000000000000000ff40008
:2044b100000000000c300000000000000000000000000000000000000000000000000000af
:2044d1000000000000003fc00000000000000000000000000000000000ff000000000000cd
:1644f1000000000000000000000000000000000000000000ff00b6
:204507000000000000c30200000000000000000000000000000000000000000000000000cf
:2045270000000000300003fd00000000000000000000000000000000000ff4000000000041
:1745470000000000000000000000000000000000000006000ff40054
:20455e00000000000c3000000000003fc000000000000000080000000000000000000000fa
:20457e000002a8000c003fc00000000000000000000000000a00000000ff0000000000005f
:16459e000000000000000000000000000000000a000400c05000e9
:2045b4000000000000c3020000000003fc00000000000000028000000000000000000000a1
:2045d40000000800000003fd00000000000000000000000000a00000000ff400000000001c
:1745f40000000000000000000000000000000000a00200018a000083
:20460b00000000000c3000000000000000000000000000000000000003fc00000000000054
:20462b0000000000009000000000000000000000000000000000000000ff000000040000dc
:16464b0000000000000000000000000000000000000003405000c6
:204661000000000000c3020000000000000000000000000000000000003fd0000000000065
:20468100000000001809029400000000000000000000000000000000000ff400000000005f
:1746a1000000000000000000000000000000000000000000ca000038
:2046b800000000000c300000000000000000000000000000000000000000000000000000a6
:2046d8000000000000000000000000000000000000000000000000000000000000000000c2
:1646f80000000000000000000000000000000000000000000000ac
:20470e00000000000ec30200000000000000000000000000000000000000000000000000b8
:20472e0000000000000000000000000000000000000000000000000000000000000000006b
:17474e00000000000000000000000000000000000000000000000054
:20476500000000000c300000000000000000000000000000000000000000000000000000f8
:20478500000000000000000000000000000000000000000000000000000000000000000014
:1647a50000000000000000000000000000000000000000000000fe
:2047bb000000140000c3020000000000000000000000000000000000000000000000000005
:2047db000000000000000000000000000000000000000000000000000000000000000000be
:1747fb000000000000000000000000000000000000000000000000a7
:20481200000000000c3000000000000000000000000000000000000000000000000000004a
:20483200000000000000000000000000000000000000000000000000000000000000000066
:164852000000000000000000000000000000000000000000000050
:204868000000000000c302000000000000000000000000000000000000000000000000006b
:20488800000000000000000000000000000000000000000000000000000000000000000010
:1748a8000000000000000000000000000000000000000000000000f9
:2048bf00000000000c3000000000000000000000000000000000000000000000000000009d
:2048df000000000000000000000000000000000000000000000000000000000000000000b9
:1648ff0000000000000000000000000000000000000000000000a3
:204915000000140000c30200000000000000000000000000000000000000000000000000a9
:20493500000000000000000000000000000000000000000000000000000000000000000062
:1749550000000000000000000000000000000000000000000000004b
:20496c00000000000c300000000000000000000000000000000000000000000000000000ef
:20498c0000000000000000000000000000000000000000000000000000000000000000000b
:1649ac0000000000000000000000000000000000000000000000f5
:2049c2000000000000c3020000000000000000000000000000000000000000000000000010
:2049e2000000000000000000000000000000000000000000000000000000000000000000b5
:174a0200000000000000000000000000000000000004000000000099
:204a1900000000000c30000000000000000000000000000000000000000000000000000041
:204a390000000000000000000000000000000000000000000000000000000000000000005d
:164a59000000000000000000000000000000000000000000000047
:204a6f000000000000c3020000000000000000000000000000000000000000000000000062
:204a8f00000000000000000000000000000000000000000000000000000000000000000007
:174aaf000000000000000000000000000000000000000000000000f0
:204ac600000000000c30000000000000000000000000000000000000000000000000000094
:204ae6000000000000000000000000000000000000000000000000000000000000000000b0
:164b06000000000000000000000000000000000000000000000099
:204b1c000000000000c30200000000000000000000000000000000000000000000000000b4
:204b3c00000000000000000000000000000000000000000000000000000000000000000059
:174b5c00000000000000000000000000000000000000000000000042
:204b7300000000000c300000000000000000000000000000000000000000000000000000e6
:204b9300000000000000000000000000000000000000000000000000000000000000000002
:164bb30000000000000000000000000000000000000000000000ec
:204bc90000000000c0c3020000000000000000000000000000000000000000000000000047
:204be9000000000000000000000000000000000000000000000000000000000000000000ac
:174c0900000000000000000000000000000000000000000000000094
:204c2000000000000c30000000000000000000000000000000000000000000000000000038
:204c4000000000000000000000000000000000000000000000000000000000000000000054
:164c6000000000000000000000000000000000000000000000003e
:204c76000000000000c3020000000000000000000000000000000000000000000000000059
:204c96000000000000000000000000000000000000000000000000000000000000000000fe
:174cb6000000000000000000000000000000000000000000000000e7
:204ccd00000000000c3000000000000000000000000000000000000000000000000000008b
:204ced000000000000000000000000000000000000000000000000000000000000000000a7
:164d0d000000000000000000000000000000000000000000000090
:204d23000000000000c30200000000000000000000000000000000000000000000000000ab
:204d4300000000000000000000000000000000000000000000000000000000000000000050
:174d6300000000000000000000000000000000000000000000000039
:204d7a00000000000c300000000000000000000000000000000000000000000000000000dd
:204d9a000000000000000000000000000000000000000000000000000000000000000000f9
:164dba0000000000000000000000000000000000000000000000e3
:204dd0000000000000c30200000000000000000000000000000000000000000000000000fe
:204df0000000000000000000000000000000000000000000000000000000000000000000a3
:174e100000000000000000000000000000000000000000000000008b
:204e2700000000000c3000000000000000000000000000000000000000000000000000002f
:204e470000000000000000000000000000000000000000000000000000000000000000004b
:164e67000000000000000000000000000000000000000000000035
:204e7d000000000000c3020000000000000000000000000000000000000000000000000050
:204e9d000000000000000000000000000000000000000000000000000000000000000000f5
:174ebd000000000000000000000000000000000000000000000000de
:204ed400000000000c30000000000000000000000000000000000000000000000000000082
:204ef40000000000000000000000000000000000000000000000000000000000000000009e
:164f14000000000000000000000000000000000000000000000087
:204f2a000000000000c30200000000000000000000000000000000000000000000000000a2
:204f4a00000000000000000000000000000000000000000000000000000000000000000047
:174f6a00000000000000000000000000000000000000000000000030
:204f8100000000000c300000000000000000000000000000000000000000000000000000d4
:204fa1000000000000000000000000000000000000000000000000000000000000000000f0
:164fc10000000000000000000000000000000000000000000000da
:204fd7000000000000c30200000000000000000000000000000000000000000000000000f5
:204ff70000000000000000000000000000000000000000000000000000000000000000009a
:17501700000000000000000000000000000000000000000000000082
:20502e00000000000c30000000000000000000000000000000000000000000000000000026
:20504e00000000000000000000000000000000000000000000000000000000000000000042
:16506e00000000000000000000000000000000000000000000002c
:205084000000000000c3020000000000000000000000000000000000000000000000000047
:2050a4000000000000000000000000000000020000000000000000000000000000000000ea
:1750c4000000000000000000000000000000000000000000000000d5
:2050db00000000000c30000000000000000000000000000000000000000000000000000079
:2050fb00000000000000000000000000000000000000000000000000000000000000000095
:16511b00000000000000000000000000000000000000000000007e
:205131000000000000c3020000000000000000000000000000000000000000000000000099
:2051510000000000000000000000000000000000000000000000000000000000000000003e
:17517100000000000000000000000000000000000000000000000027
:20518800000000000c300000000000000000000000000000000000000000000000000000cb
:2051a8000000000000000000000000000000000000000000000000000000000000000000e7
:1651c80000000000000000000000000000000000000000000000d1
:2051de000000000000c30200000000000000000000000000000000000000000000000000ec
:2051fe00000000000000000000000000000000000000000000000000000000000000000091
:17521e00000000000000000000000000000000000000000000000079
:20523500000000000c3000000000000000000000000000000000000000000000000000001d
:20525500000000000000000000000000000000000000000000000000000000000000000039
:165275000000000000000000000000000000000000000000000023
:20528b000000000000c302000000000000000000000000000000000000000000000000003e
:2052ab000000000000000000000000000000080000000000000000000000000000000000db
:1752cb000000000000000000000000000000000000000000000000cc
:2052e200000000000c30000000000000000000000000000000000000000000000800000068
:2053020000000000000000000000000000000000000000000000000000000000000000008b
:165322000000000000000000000000000000000000000000000075
:205338000000000000c302000000000000000000000000000000000000000000010000008f
:20535800000000000000000000000000000000000000000000000000000000000000000035
:1753780000000000000000000000000000000000000000000000001e
:20538f00000000000c300000000000000000000000000000000000000000000000000000c2
:2053af000000000000000000000000000000000000000000000000000000000000000000de
:1653cf0000000000000000000000000000000000000000000000c8
:2053e5000000000000c30200000000000000000000000000000000000000000000000000e3
:20540500000000000000000000000000000000000000000000000000000000000000000087
:17542500000000000000000000000000000000000000000000000070
:20543c00000000000c30000000000000000000000000000000000000000000000000000014
:20545c000000000000000000000080000000000000000000000000000000000000000000b0
:16547c00000000000000000000000000000000000000000000001a
:205492000000000000c3020000000000000000000000000000000000000000000000000035
:2054b2000000000000000000000014000000000000000000000000000000000000000000c6
:1754d2000000000000000000000000000000000000000000000000c3
:2054e900000000000c30000000000000000000000000000000000000000000000000000067
:20550900000000000000000000000000000000000000000000000000000000000000000082
:16552900000000000000000000000000000000000000000000006c
:20553f000000000000c3020000000000000000000000000000000000000000000000000087
:20555f0000000000000000000000000000000000000000000000000000000000000000002c
:17557f00000000000000000000000000000000000000000000000015
:20559600000000000c300000000000000000000000000000000000000000000000000000b9
:2055b6000000000000000000000000000000000000000000000000000000000400000000d1
:1655d60000000000000000000000000000000000000000000000bf
:2055ec000000000000c30200000000000000000000000000000000000000000000000000da
:20560c0000000000000000000000000000000000000000000000000000000000000000007e
:17562c00000000000000000000000000000000000000000000000067
:20564300000000000c3000000000000000000000000000000000000000000000000000000b
:20566300000000000000000000000000000000000000000000000000000000000000000027
:165683000000000000000000000000000000000000000000000011
:205699000000000000c302000000000000000000000000000000000000000000000000002c
:2056b9000000000000000000000000000000000004000000000000000000000000000000cd
:1756d9000000000000000000000000000000000000000000000000ba
:2056f00000000000000000000000000000000000000000000000000000000000000000009a
:20571000000000000000000000000000000000000000000000000000000000000000000079
:165730000000000000000000000000000000000000000000000063
:20574600000000000000000000000000000000000000000000000000000000000000000043
:20576600000000000000000000000000000000000000000000000000000000000000000023
:1757860000000000000000000000000000000000000000000000000c
:20579d000000000000000000000000000000000000000000000000000000000000000000ec
:2057bd000000000000000000000000000000000000000000000000000000000000000000cc
:1657dd0000000000000000000000000000000000100000000000a6
:2057f300000000000000000000000000000000000000000000000000000000000000000096
:20581300000000000000000000000000000000000000000000000000000000000000000075
:1758330000000000000000000000000000000000000000000000005e
:20584a0000000000000000000000000000000000000000000000000000000000000000003e
:20586a0000000000000000000000000000000000000000000000000000000000000000001e
:16588a000000000000000000000000000000000000000000000008
:2058a0000000000000000000000000000000000000000000000000000000000000000000e8
:2058c0000000000000000000000000000000000000000000000000000000000000000000c8
:1758e0000000000000000000000000000000000000000000000000b1
:2058f700000000000000000000000000000000000000000000000000000000000000000091
:20591700000000000000000000000000000000000000000000000000000000000000000070
:16593700000000000000000000000000000000000000000000005a
:20594d0000000000000000000000000000000000000000000000000000000000000000003a
:20596d0000000000000000000000000000000000000000000000000000000000000000001a
:17598d00000000000000000000000000000000000000000000000003
:2059a4000000000000000000000000000000000000000000000000000000000000000000e3
:2059c4000000000000000000000000000000000000000000000000000000000000000000c3
:1659e40000000000000000000000000000000000000000000000ad
:2059fa0000000000000000000000000000000000000000000000000000000000000000008d
:205a1a0000000000000000000000000000000000000000000010000000000000000000005c
:175a3a00000000000000000000000000000000000000000000000055
:205a5100000000000000000000000000000000000000000000000000000000000000000035
:205a7100000000000000000000000000000000000000000000000000000000000000000015
:165a910000000000000000000000000000000000000000000000ff
:175fa2000000000000000000000000000000000000140000000000d4
:205fb9000000000000000000000000000000000000000000000000000000000000000000c8
:205fd9000000000000000000000000000000000000000000000000000000000000000000a8
:165ff9000000000000000000000000000000000000000000000092
:20600f00000000000000000000000000000000000000000000000000000000000000000071
:166768000000000000000000000000000000000000000010f0001b
:20677e000000000000000000000000000000000000000000000000000000000000000000fb
:20679e0000000000000000000000000000000000000000000000000000000000400000009b
:1767be000000000000000000000000000000000000000000af040011
:2067d5000000000000000000000000000000000000000000000000000000000000000000a4
:2067f500000000000000000000000000000000000000000000000000000000000000000084
:16681500000000000000000000000000000000000000000000006d
:20682b0000000000000000000000000000000000000000000000000000000000000000004d
:20684b0000000000000000000000000000000000000000000000000000000000000000002d
:17686b00000000000000000000000000000000000000000000000016
:206882000000000000000000000000000000000000000000000000000000000000000000f6
:2068a2000000000000000000000000000000000000000000000000000000000000000000d6
:1668c20000000000000000000000000000000000000000000000c0
:2068d8000000000000000000000000000000000000000000000000000000000000000000a0
:2068f800000000000000000000000000000000000000000000000000000000000000000080
:17691800000000000000000000000000000000000000000000000068
:20692f00000000000000000000000000000000000000000000000000000000000000000048
:20694f00000000000000000000000000000000000000000000000000000000000000000028
:16696f000000000000000000000000000000000000000000000012
:206985000000000000000000000000000000000000000000000000000000000000000000f2
:2069a5000000000000000000000000000000000000000000000000000000000000000000d2
:1769c5000000000000000000000000000000000000000000000000bb
:2069dc0000000000000000000000000000000000000000000000000000000000000000009b
:2069fc0000000000000000000000000000000000000000000000000000000000000000007b
:166a1c000000000000000000000000000000000000000000000064
:206a3200000000000000000000000000000000000000000000000000000000000140000003
:206a5200000000000000000000000000000000000000000000000000000000000000000024
:176a720000000000000000000000000000000000000000000000000d
:206a89000000000000000000000000000000000000000000000000000000000000000000ed
:206aa9000000000000000000000000000000000000000000000000000000000000000000cd
:166ac90000000000000000000000000000000000000000000000b7
:206adf00000000000000000000000000000000000000000000000000000000000000000097
:206aff00000000000000000000000000000000000000000000000000000000000000000077
:176b1f0000000000000000000000000000000000000003000000005c
:206b360000000000000000000000000000000000000000000000000000000000000000003f
:206b560000000000000000000000000000000000000000000000000000000000000000001f
:166b76000000000000000000000000000000000000000000000009
:206b8c000000000000000000000000000000000000000000000000000000000000000000e9
:206bac000000000000000000000000000000000000000000000000000000000000000000c9
:176bcc00000000000000000000000000000000006000000000000052
:206be300000000000000000000000000000000000000000000000000000000000000000092
:206c0300000000000000000000000000000000000000000000000000000000000000000071
:166c2300000000000000000000000000000000000000000000005b
:206c390000000000000000000000000000000000000000000000000000000000000000003b
:167238000000000000000000000000000000000040000000000000
:20724e00000000000000000000000000000000000000000000000000000000000000000020
:20726e00000000000000000000000000000000000000000000000000000000000000000000
:17728e00000000000000000000000000000000000a000000000000df
:2072a5000000000000000000000000000000000000000000000000000000000000000000c9
:2072c5000000000000000000000000000000000000000000000000000000000000000000a9
:1672e5000000000000000000000000000000000000000000000093
:2072fb00000000000000000000000000000000000000000000000000000000000000000073
:20731b00000000000000000000000000000000000000000000000000000000000000000052
:17733b0000000000000000000000000000000000000000000000003b
:2073520000000000000000000000000000000000000000000000000000000000000000001b
:207372000000000000000000000000000000000000000000000000000000000000000000fb
:1673920000000000000000000000000000000000000000000000e5
:2073a8000000000000000000000000000000000000000000000000000000000000000000c5
:2073c8000000000000000000000000000000000000000000000000000000000000000000a5
:1773e80000000000000000000000000000000000000000000000008e
:2073ff0000000000000000000000000000000000000000000000000000000000000000006e
:20741f0000000000000000000000000000000000000000000000000000000000000000004d
:16743f000000000000000000000000000000000000000000000037
:20745500000000000000000000000000000000000000000000000000000000000000000017
:207475000000000000000000000000000000000000000000000000000000000000000000f7
:177495000000000000000000000000000000000000000000000000e0
:2074ac000000000000000000000000000000000000000000000000000000000000000000c0
:2074cc000000000000000000000000000000000000000000000000000000000000000000a0
:1674ec00000000000000000000000000000000000000000000008a
:20750200000000000000000000000000000000000000000000000000000000000000000069
:207522000000000000000000000000000000000000000000000000000000000000038000c6
:17754200000000000000000000000000000000000000000000000032
:20755900000000000000000000000000000000000000000000000000000000000000000012
:207579000000000000000000000000000000000000000000000000000000000000010000f1
:1675990000000000000000000000000000000000000000000000dc
:2075af000000000000000000000000000000000000000000000000000000000000000000bc
:2075cf000000000000000000000000000000000000000000000000000000000000001c0080
:1775ef000000000000000000000000000000000000c00000000000c5
:20760600000000000000000000000000000000000000000000000000000000000000000064
:207626000000000000000000000000000000000000000000000000000000000000000083c1
:16764600d40000000000000000000000000000000000000000005a
:20765c0000000000000000000000000000000000000000000000000000000000000000000e
:20767c00000000000000000000000000000000000000000000000000000000000000005698
:17769c00bd40200000000000000000000000000000000000000000ba
:2076b3000000000000000000000000000000000000000000000000000000000000000000b7
:2076d300000000000000000000000000000000000000000000000000000000000000000097
:1676f3000000000000000000000000000000000000000000000081
:20770900200000000000000000000000000000000000000000000000000000000000000040
:20772900000000000000000000000000000000000000000000000000000000000000000040
:17774900000000000000000000000000000000000000000000000029
:02776000000027
:02776200110212
:02776400010121
:20776600000000000000000002000000000000080000000000002000000000000080000059
:20778600000000020000000000800000000000020000000000000800000000000020000037
:1677a6000000000080000000000002000000000000080000000043
:2077bc00000000000000000000100000000000004000000000000100000000000004000058
:2077dc00000000001000000000040000000000001000000000000040000000000001000028
:1777fc00000000000400000000000010000000000000400000000022
:2078130000000000000000000000000000000000000000080000000000002000000000002d
:20783300008000000000000000000000008000000000000200000000000000000000000033
:167853000000000000000000000000000000000000000000000817
:207869000000000000000000000000000000000000000000000000000000000000000000ff
:207889000000000000000000000000000000000000000000000000000000000000000000df
:1778a9000000000000000000000000000000000000000000000000c8
:2078c0000000000000000000000000000000000000000000000000000000000000000000a8
:2078e000000000000000000000000000000000000000000000000000000000000000000088
:167900000000000000000000000000000000000000000000000071
